{
  "contractName": "MyToken",
  "abi": [
    {
      "inputs": [
        {
          "internalType": "address[]",
          "name": "_tokenAddr",
          "type": "address[]"
        }
      ],
      "stateMutability": "nonpayable",
      "type": "constructor"
    },
    {
      "anonymous": false,
      "inputs": [
        {
          "indexed": false,
          "internalType": "address",
          "name": "account",
          "type": "address"
        },
        {
          "indexed": false,
          "internalType": "address",
          "name": "_tokenAddr",
          "type": "address"
        },
        {
          "indexed": false,
          "internalType": "uint256",
          "name": "_cost",
          "type": "uint256"
        },
        {
          "indexed": false,
          "internalType": "uint256",
          "name": "_amount",
          "type": "uint256"
        }
      ],
      "name": "buy",
      "type": "event"
    },
    {
      "anonymous": false,
      "inputs": [
        {
          "indexed": false,
          "internalType": "address",
          "name": "account",
          "type": "address"
        },
        {
          "indexed": false,
          "internalType": "address",
          "name": "_tokenAddr",
          "type": "address"
        },
        {
          "indexed": false,
          "internalType": "uint256",
          "name": "_cost",
          "type": "uint256"
        },
        {
          "indexed": false,
          "internalType": "uint256",
          "name": "_amount",
          "type": "uint256"
        }
      ],
      "name": "sell",
      "type": "event"
    },
    {
      "inputs": [
        {
          "internalType": "address",
          "name": "",
          "type": "address"
        }
      ],
      "name": "supportedTokenAddr",
      "outputs": [
        {
          "internalType": "bool",
          "name": "",
          "type": "bool"
        }
      ],
      "stateMutability": "view",
      "type": "function",
      "constant": true
    },
    {
      "inputs": [
        {
          "internalType": "address",
          "name": "_tokenAddr",
          "type": "address"
        },
        {
          "internalType": "uint256",
          "name": "_cost",
          "type": "uint256"
        },
        {
          "internalType": "uint256",
          "name": "_amount",
          "type": "uint256"
        }
      ],
      "name": "buyToken",
      "outputs": [],
      "stateMutability": "payable",
      "type": "function",
      "payable": true
    },
    {
      "inputs": [
        {
          "internalType": "address",
          "name": "_tokenAddr",
          "type": "address"
        },
        {
          "internalType": "uint256",
          "name": "_cost",
          "type": "uint256"
        },
        {
          "internalType": "uint256",
          "name": "_amount",
          "type": "uint256"
        }
      ],
      "name": "sellToken",
      "outputs": [],
      "stateMutability": "nonpayable",
      "type": "function"
    }
  ],
  "bytecode": "0x608060405234801561001057600080fd5b50604051610bee380380610bee8339818101604052602081101561003357600080fd5b810190808051604051939291908464010000000082111561005357600080fd5b8382019150602082018581111561006957600080fd5b825186602082028301116401000000008211171561008657600080fd5b8083526020830192505050908051906020019060200280838360005b838110156100bd5780820151818401526020810190506100a2565b5050505090500160405250505060008090505b81518110156101505760016000808484815181106100ea57fe5b602002602001015173ffffffffffffffffffffffffffffffffffffffff1673ffffffffffffffffffffffffffffffffffffffff16815260200190815260200160002060006101000a81548160ff02191690831515021790555080806001019150506100d0565b5050610a8d806101616000396000f3fe6080604052600436106100345760003560e01c8063096db4d6146100395780633e11741f146100a2578063e671499b14610107575b600080fd5b34801561004557600080fd5b506100886004803603602081101561005c57600080fd5b81019080803573ffffffffffffffffffffffffffffffffffffffff16906020019092919050505061015f565b604051808215151515815260200191505060405180910390f35b3480156100ae57600080fd5b50610105600480360360608110156100c557600080fd5b81019080803573ffffffffffffffffffffffffffffffffffffffff169060200190929190803590602001909291908035906020019092919050505061017f565b005b61015d6004803603606081101561011d57600080fd5b81019080803573ffffffffffffffffffffffffffffffffffffffff1690602001909291908035906020019092919080359060200190929190505050610652565b005b60006020528060005260406000206000915054906101000a900460ff1681565b82600115156000808373ffffffffffffffffffffffffffffffffffffffff1673ffffffffffffffffffffffffffffffffffffffff16815260200190815260200160002060009054906101000a900460ff16151514610245576040517f08c379a000000000000000000000000000000000000000000000000000000000815260040180806020018281038252601b8152602001807f5468697320746f6b656e206973206e6f7420737570706f72746564000000000081525060200191505060405180910390fd5b6000849050838173ffffffffffffffffffffffffffffffffffffffff166370a08231336040518263ffffffff1660e01b8152600401808273ffffffffffffffffffffffffffffffffffffffff1673ffffffffffffffffffffffffffffffffffffffff16815260200191505060206040518083038186803b1580156102c857600080fd5b505afa1580156102dc573d6000803e3d6000fd5b505050506040513d60208110156102f257600080fd5b81019080805190602001909291905050501015610377576040517f08c379a00000000000000000000000000000000000000000000000000000000081526004018080602001828103825260198152602001807f54686520746f6b656e20697320696e73756666696369656e740000000000000081525060200191505060405180910390fd5b824710156103d0576040517f08c379a0000000000000000000000000000000000000000000000000000000008152600401808060200182810382526027815260200180610a316027913960400191505060405180910390fd5b8073ffffffffffffffffffffffffffffffffffffffff166323b872dd3330876040518463ffffffff1660e01b8152600401808473ffffffffffffffffffffffffffffffffffffffff1673ffffffffffffffffffffffffffffffffffffffff1681526020018373ffffffffffffffffffffffffffffffffffffffff1673ffffffffffffffffffffffffffffffffffffffff1681526020018281526020019350505050602060405180830381600087803b15801561048b57600080fd5b505af115801561049f573d6000803e3d6000fd5b505050506040513d60208110156104b557600080fd5b81019080805190602001909291905050505060003373ffffffffffffffffffffffffffffffffffffffff168460405180600001905060006040518083038185875af1925050503d8060008114610527576040519150601f19603f3d011682016040523d82523d6000602084013e61052c565b606091505b50509050806105a3576040517f08c379a00000000000000000000000000000000000000000000000000000000081526004018080602001828103825260138152602001807f455448207472616e73666572206661696c65640000000000000000000000000081525060200191505060405180910390fd5b7f31de7d15e9e6c3b6f319c842341b735c0f9d7a5d06944314495f952400bd74c033878787604051808573ffffffffffffffffffffffffffffffffffffffff1673ffffffffffffffffffffffffffffffffffffffff1681526020018473ffffffffffffffffffffffffffffffffffffffff1673ffffffffffffffffffffffffffffffffffffffff16815260200183815260200182815260200194505050505060405180910390a1505050505050565b82600115156000808373ffffffffffffffffffffffffffffffffffffffff1673ffffffffffffffffffffffffffffffffffffffff16815260200190815260200160002060009054906101000a900460ff16151514610718576040517f08c379a000000000000000000000000000000000000000000000000000000000815260040180806020018281038252601b8152602001807f5468697320746f6b656e206973206e6f7420737570706f72746564000000000081525060200191505060405180910390fd5b6000849050833414610792576040517f08c379a00000000000000000000000000000000000000000000000000000000081526004018080602001828103825260188152602001807f5468652066756e6420697320696e73756666696369656e74000000000000000081525060200191505060405180910390fd5b828173ffffffffffffffffffffffffffffffffffffffff166370a08231306040518263ffffffff1660e01b8152600401808273ffffffffffffffffffffffffffffffffffffffff1673ffffffffffffffffffffffffffffffffffffffff16815260200191505060206040518083038186803b15801561081057600080fd5b505afa158015610824573d6000803e3d6000fd5b505050506040513d602081101561083a57600080fd5b810190808051906020019092919050505010156108bf576040517f08c379a00000000000000000000000000000000000000000000000000000000081526004018080602001828103825260158152602001807f54686520746f6b656e20697320736f6c64206f7574000000000000000000000081525060200191505060405180910390fd5b8073ffffffffffffffffffffffffffffffffffffffff1663a9059cbb33856040518363ffffffff1660e01b8152600401808373ffffffffffffffffffffffffffffffffffffffff1673ffffffffffffffffffffffffffffffffffffffff16815260200182815260200192505050602060405180830381600087803b15801561094657600080fd5b505af115801561095a573d6000803e3d6000fd5b505050506040513d602081101561097057600080fd5b8101908080519060200190929190505050507fa9d424e2b661a4cf6090e4849fd2d81c17106afa4b26188dcc493a69ea4c2b5e33868686604051808573ffffffffffffffffffffffffffffffffffffffff1673ffffffffffffffffffffffffffffffffffffffff1681526020018473ffffffffffffffffffffffffffffffffffffffff1673ffffffffffffffffffffffffffffffffffffffff16815260200183815260200182815260200194505050505060405180910390a1505050505056fe54686520636f6e747261637420646f6573206e6f74206861766520656e6f7567682066756e6473a2646970667358221220718fda2e518b86942ed4e338438b87064888765f2c7ae9aef0bab59f44e6fe4164736f6c63430006020033",
  "source": "// SPDX-License-Identifier: MIT\n// Current solc ver.: 0.6.2\npragma solidity >=0.4.21 <0.7.0;\n\nimport \"./ERC20.sol\";\n\n\ncontract MyToken {\n    event buy(address account, address _tokenAddr, uint _cost, uint _amount);\n    event sell(address account, address _tokenAddr, uint _cost, uint _amount);\n\n    mapping(address => bool) public supportedTokenAddr;\n\n    modifier supportsToken(address _tokenAddr) {\n        require(supportedTokenAddr[_tokenAddr] == true, \"This token is not supported\");\n        _;\n    }\n\n    constructor(address[] memory _tokenAddr) public {\n        for(uint i = 0; i < _tokenAddr.length; i++) {\n            supportedTokenAddr[_tokenAddr[i]] = true;\n        }\n    }\n\n    function buyToken(address _tokenAddr, uint256 _cost, uint256 _amount) external payable supportsToken(_tokenAddr) {\n        ERC20 token = ERC20(_tokenAddr);\n        require(msg.value == _cost, \"The fund is insufficient\");\n        require(token.balanceOf(address(this)) >= _amount, \"The token is sold out\");\n\n        token.transfer(msg.sender, _amount);\n        emit buy(msg.sender, _tokenAddr, _cost, _amount);\n    }\n\n    function sellToken(address _tokenAddr, uint256 _cost, uint256 _amount) external supportsToken(_tokenAddr) {\n        ERC20 token = ERC20(_tokenAddr);\n        require(token.balanceOf(msg.sender) >= _cost, \"The token is insufficient\");\n        require(address(this).balance >= _amount, \"The contract does not have enough funds\");\n\n        token.transferFrom(msg.sender, address(this), _cost);\n        (bool success, ) = payable(msg.sender).call{value: _amount}(\"\");\n        require(success, \"ETH transfer failed\");\n        emit sell(msg.sender, _tokenAddr, _cost, _amount);\n    }\n}\n",
  "sourcePath": "/Users/tiger/Scripts_GoogleDrive/blockchain/ERC20-based-token/contracts/MyToken.sol",
  "compiler": {
    "name": "solc",
    "version": "0.6.2+commit.bacdbe57.Emscripten.clang"
  },
  "schemaVersion": "3.4.3",
  "updatedAt": "2021-12-29T21:02:14.639Z",
  "networkType": "ethereum",
  "devdoc": {
    "methods": {}
  },
  "userdoc": {
    "methods": {}
  }
}